{
  "contractName": "RealEstate",
  "abi": [
    {
      "anonymous": false,
      "inputs": [
        {
          "indexed": false,
          "internalType": "uint256",
          "name": "id",
          "type": "uint256"
        },
        {
          "indexed": false,
          "internalType": "address",
          "name": "from",
          "type": "address"
        },
        {
          "indexed": false,
          "internalType": "address",
          "name": "to",
          "type": "address"
        }
      ],
      "name": "OwnershipTransferred",
      "type": "event"
    },
    {
      "anonymous": false,
      "inputs": [
        {
          "indexed": false,
          "internalType": "uint256",
          "name": "id",
          "type": "uint256"
        },
        {
          "indexed": false,
          "internalType": "string",
          "name": "description",
          "type": "string"
        },
        {
          "indexed": false,
          "internalType": "address",
          "name": "owner",
          "type": "address"
        },
        {
          "indexed": false,
          "internalType": "uint256",
          "name": "price",
          "type": "uint256"
        }
      ],
      "name": "PropertyListed",
      "type": "event"
    },
    {
      "anonymous": false,
      "inputs": [
        {
          "indexed": false,
          "internalType": "uint256",
          "name": "id",
          "type": "uint256"
        },
        {
          "indexed": false,
          "internalType": "address",
          "name": "newOwner",
          "type": "address"
        },
        {
          "indexed": false,
          "internalType": "uint256",
          "name": "price",
          "type": "uint256"
        }
      ],
      "name": "PropertySold",
      "type": "event"
    },
    {
      "inputs": [
        {
          "internalType": "uint256",
          "name": "",
          "type": "uint256"
        }
      ],
      "name": "properties",
      "outputs": [
        {
          "internalType": "uint256",
          "name": "id",
          "type": "uint256"
        },
        {
          "internalType": "string",
          "name": "description",
          "type": "string"
        },
        {
          "internalType": "address payable",
          "name": "owner",
          "type": "address"
        },
        {
          "internalType": "uint256",
          "name": "price",
          "type": "uint256"
        }
      ],
      "stateMutability": "view",
      "type": "function",
      "constant": true
    },
    {
      "inputs": [],
      "name": "propertyCount",
      "outputs": [
        {
          "internalType": "uint256",
          "name": "",
          "type": "uint256"
        }
      ],
      "stateMutability": "view",
      "type": "function",
      "constant": true
    },
    {
      "inputs": [
        {
          "internalType": "string",
          "name": "_description",
          "type": "string"
        },
        {
          "internalType": "uint256",
          "name": "_price",
          "type": "uint256"
        }
      ],
      "name": "addProperty",
      "outputs": [],
      "stateMutability": "nonpayable",
      "type": "function"
    },
    {
      "inputs": [
        {
          "internalType": "uint256",
          "name": "_id",
          "type": "uint256"
        }
      ],
      "name": "buyProperty",
      "outputs": [],
      "stateMutability": "payable",
      "type": "function",
      "payable": true
    },
    {
      "inputs": [
        {
          "internalType": "uint256",
          "name": "_id",
          "type": "uint256"
        },
        {
          "internalType": "address payable",
          "name": "_newOwner",
          "type": "address"
        }
      ],
      "name": "transferOwnership",
      "outputs": [],
      "stateMutability": "nonpayable",
      "type": "function"
    },
    {
      "inputs": [
        {
          "internalType": "uint256",
          "name": "_id",
          "type": "uint256"
        }
      ],
      "name": "getPropertyDetails",
      "outputs": [
        {
          "internalType": "string",
          "name": "description",
          "type": "string"
        },
        {
          "internalType": "address",
          "name": "owner",
          "type": "address"
        },
        {
          "internalType": "uint256",
          "name": "price",
          "type": "uint256"
        },
        {
          "internalType": "address[]",
          "name": "previousOwners",
          "type": "address[]"
        }
      ],
      "stateMutability": "view",
      "type": "function",
      "constant": true
    },
    {
      "inputs": [
        {
          "internalType": "uint256",
          "name": "_id",
          "type": "uint256"
        }
      ],
      "name": "getPreviousOwners",
      "outputs": [
        {
          "internalType": "address[]",
          "name": "",
          "type": "address[]"
        }
      ],
      "stateMutability": "view",
      "type": "function",
      "constant": true
    }
  ],
  "bytecode": "0x608060405234801561001057600080fd5b5061175a806100206000396000f3fe6080604052600436106100705760003560e01c8063c361a3351161004e578063c361a335146100fa578063f1a0995c14610125578063f54e1aef14610162578063f7b108081461018b57610070565b8063126dbe431461007557806329507f73146100b55780636fa830a6146100de575b600080fd5b34801561008157600080fd5b5061009c60048036038101906100979190610ea9565b6101cb565b6040516100ac94939291906111f6565b60405180910390f35b3480156100c157600080fd5b506100dc60048036038101906100d79190610ed2565b610386565b005b6100f860048036038101906100f39190610ea9565b6105f8565b005b34801561010657600080fd5b5061010f6108b9565b60405161011c9190611309565b60405180910390f35b34801561013157600080fd5b5061014c60048036038101906101479190610ea9565b6108bf565b60405161015991906111d4565b60405180910390f35b34801561016e57600080fd5b5061018960048036038101906101849190610e55565b6109aa565b005b34801561019757600080fd5b506101b260048036038101906101ad9190610ea9565b610b36565b6040516101c294939291906113c9565b60405180910390f35b606060008060606101db85610c0e565b61021a576040517f08c379a0000000000000000000000000000000000000000000000000000000008152600401610211906112a9565b60405180910390fd5b60008060008781526020019081526020016000209050806001018160020160009054906101000a900473ffffffffffffffffffffffffffffffffffffffff1682600301548360040183805461026e906115dd565b80601f016020809104026020016040519081016040528092919081815260200182805461029a906115dd565b80156102e75780601f106102bc576101008083540402835291602001916102e7565b820191906000526020600020905b8154815290600101906020018083116102ca57829003601f168201915b505050505093508080548060200260200160405190810160405280929190818152602001828054801561036f57602002820191906000526020600020905b8160009054906101000a900473ffffffffffffffffffffffffffffffffffffffff1673ffffffffffffffffffffffffffffffffffffffff1681526020019060010190808311610325575b505050505090509450945094509450509193509193565b61038f82610c0e565b6103ce576040517f08c379a00000000000000000000000000000000000000000000000000000000081526004016103c5906112a9565b60405180910390fd5b600080600084815260200190815260200160002090503373ffffffffffffffffffffffffffffffffffffffff168160020160009054906101000a900473ffffffffffffffffffffffffffffffffffffffff1673ffffffffffffffffffffffffffffffffffffffff1614610476576040517f08c379a000000000000000000000000000000000000000000000000000000000815260040161046d906112c9565b60405180910390fd5b600073ffffffffffffffffffffffffffffffffffffffff168273ffffffffffffffffffffffffffffffffffffffff1614156104e6576040517f08c379a00000000000000000000000000000000000000000000000000000000081526004016104dd906112e9565b60405180910390fd5b60008160020160009054906101000a900473ffffffffffffffffffffffffffffffffffffffff16905081600401819080600181540180825580915050600190039060005260206000200160009091909190916101000a81548173ffffffffffffffffffffffffffffffffffffffff021916908373ffffffffffffffffffffffffffffffffffffffff160217905550828260020160006101000a81548173ffffffffffffffffffffffffffffffffffffffff021916908373ffffffffffffffffffffffffffffffffffffffff1602179055507f16b85f49bf01212961345d3016c9a531894accf62eb7680f2045d79185cc0ec08482856040516105ea9392919061135b565b60405180910390a150505050565b600260009054906101000a900460ff1615610648576040517f08c379a000000000000000000000000000000000000000000000000000000000815260040161063f90611289565b60405180910390fd5b6001600260006101000a81548160ff02191690831515021790555061066c81610c0e565b6106ab576040517f08c379a00000000000000000000000000000000000000000000000000000000081526004016106a2906112a9565b60405180910390fd5b6000806000838152602001908152602001600020905080600301543414610707576040517f08c379a00000000000000000000000000000000000000000000000000000000081526004016106fe90611269565b60405180910390fd5b60008160020160009054906101000a900473ffffffffffffffffffffffffffffffffffffffff16905081600401819080600181540180825580915050600190039060005260206000200160009091909190916101000a81548173ffffffffffffffffffffffffffffffffffffffff021916908373ffffffffffffffffffffffffffffffffffffffff160217905550338260020160006101000a81548173ffffffffffffffffffffffffffffffffffffffff021916908373ffffffffffffffffffffffffffffffffffffffff1602179055508073ffffffffffffffffffffffffffffffffffffffff166108fc349081150290604051600060405180830381858888f1935050505015801561081e573d6000803e3d6000fd5b507ff17a6666765db393a6218bb324c4de5cc60c9ee3b981bd102ba416effc13b8958333846003015460405161085693929190611392565b60405180910390a17f16b85f49bf01212961345d3016c9a531894accf62eb7680f2045d79185cc0ec083823360405161089193929190611324565b60405180910390a150506000600260006101000a81548160ff02191690831515021790555050565b60015481565b60606108ca82610c0e565b610909576040517f08c379a0000000000000000000000000000000000000000000000000000000008152600401610900906112a9565b60405180910390fd5b60008083815260200190815260200160002060040180548060200260200160405190810160405280929190818152602001828054801561099e57602002820191906000526020600020905b8160009054906101000a900473ffffffffffffffffffffffffffffffffffffffff1673ffffffffffffffffffffffffffffffffffffffff1681526020019060010190808311610954575b50505050509050919050565b600081116109ed576040517f08c379a00000000000000000000000000000000000000000000000000000000081526004016109e490611249565b60405180910390fd5b60016000815480929190610a009061160f565b919050555060606040518060a0016040528060015481526020018481526020013373ffffffffffffffffffffffffffffffffffffffff168152602001838152602001828152506000806001548152602001908152602001600020600082015181600001556020820151816001019080519060200190610a80929190610c96565b5060408201518160020160006101000a81548173ffffffffffffffffffffffffffffffffffffffff021916908373ffffffffffffffffffffffffffffffffffffffff160217905550606082015181600301556080820151816004019080519060200190610aee929190610d1c565b509050507f56e153bb0519a43f54ca21a38fc27d32a4b94637479d4f20c2f4fe651e338144600154843385604051610b299493929190611415565b60405180910390a1505050565b6000602052806000526040600020600091509050806000015490806001018054610b5f906115dd565b80601f0160208091040260200160405190810160405280929190818152602001828054610b8b906115dd565b8015610bd85780601f10610bad57610100808354040283529160200191610bd8565b820191906000526020600020905b815481529060010190602001808311610bbb57829003601f168201915b5050505050908060020160009054906101000a900473ffffffffffffffffffffffffffffffffffffffff16908060030154905084565b60008082118015610c2157506001548211155b8015610c8f5750600073ffffffffffffffffffffffffffffffffffffffff1660008084815260200190815260200160002060020160009054906101000a900473ffffffffffffffffffffffffffffffffffffffff1673ffffffffffffffffffffffffffffffffffffffff1614155b9050919050565b828054610ca2906115dd565b90600052602060002090601f016020900481019282610cc45760008555610d0b565b82601f10610cdd57805160ff1916838001178555610d0b565b82800160010185558215610d0b579182015b82811115610d0a578251825591602001919060010190610cef565b5b509050610d189190610da6565b5090565b828054828255906000526020600020908101928215610d95579160200282015b82811115610d945782518260006101000a81548173ffffffffffffffffffffffffffffffffffffffff021916908373ffffffffffffffffffffffffffffffffffffffff16021790555091602001919060010190610d3c565b5b509050610da29190610da6565b5090565b5b80821115610dbf576000816000905550600101610da7565b5090565b6000610dd6610dd184611492565b611461565b905082815260208101848484011115610dee57600080fd5b610df984828561159b565b509392505050565b600081359050610e10816116f6565b92915050565b600082601f830112610e2757600080fd5b8135610e37848260208601610dc3565b91505092915050565b600081359050610e4f8161170d565b92915050565b60008060408385031215610e6857600080fd5b600083013567ffffffffffffffff811115610e8257600080fd5b610e8e85828601610e16565b9250506020610e9f85828601610e40565b9150509250929050565b600060208284031215610ebb57600080fd5b6000610ec984828501610e40565b91505092915050565b60008060408385031215610ee557600080fd5b6000610ef385828601610e40565b9250506020610f0485828601610e01565b9150509250929050565b6000610f1a8383610f44565b60208301905092915050565b610f2f81611565565b82525050565b610f3e81611529565b82525050565b610f4d81611517565b82525050565b610f5c81611517565b82525050565b6000610f6d826114d2565b610f7781856114f5565b9350610f82836114c2565b8060005b83811015610fb3578151610f9a8882610f0e565b9750610fa5836114e8565b925050600181019050610f86565b5085935050505092915050565b6000610fcb826114dd565b610fd58185611506565b9350610fe58185602086016115aa565b610fee816116e5565b840191505092915050565b6000611006601f83611506565b91507f5072696365206d7573742062652067726561746572207468616e207a65726f006000830152602082019050919050565b6000611046600f83611506565b91507f496e636f727265637420707269636500000000000000000000000000000000006000830152602082019050919050565b6000611086601583611506565b91507f5265656e7472616e63792070726f74656374696f6e00000000000000000000006000830152602082019050919050565b60006110c6601783611506565b91507f50726f706572747920646f6573206e6f742065786973740000000000000000006000830152602082019050919050565b6000611106602583611506565b91507f4f6e6c7920746865206f776e65722063616e207472616e73666572206f776e6560008301527f72736869700000000000000000000000000000000000000000000000000000006020830152604082019050919050565b600061116c602483611506565b91507f4e6577206f776e65722063616e6e6f7420626520746865207a65726f2061646460008301527f72657373000000000000000000000000000000000000000000000000000000006020830152604082019050919050565b6111ce8161155b565b82525050565b600060208201905081810360008301526111ee8184610f62565b905092915050565b600060808201905081810360008301526112108187610fc0565b905061121f6020830186610f53565b61122c60408301856111c5565b818103606083015261123e8184610f62565b905095945050505050565b6000602082019050818103600083015261126281610ff9565b9050919050565b6000602082019050818103600083015261128281611039565b9050919050565b600060208201905081810360008301526112a281611079565b9050919050565b600060208201905081810360008301526112c2816110b9565b9050919050565b600060208201905081810360008301526112e2816110f9565b9050919050565b600060208201905081810360008301526113028161115f565b9050919050565b600060208201905061131e60008301846111c5565b92915050565b600060608201905061133960008301866111c5565b6113466020830185610f26565b6113536040830184610f53565b949350505050565b600060608201905061137060008301866111c5565b61137d6020830185610f53565b61138a6040830184610f26565b949350505050565b60006060820190506113a760008301866111c5565b6113b46020830185610f53565b6113c160408301846111c5565b949350505050565b60006080820190506113de60008301876111c5565b81810360208301526113f08186610fc0565b90506113ff6040830185610f35565b61140c60608301846111c5565b95945050505050565b600060808201905061142a60008301876111c5565b818103602083015261143c8186610fc0565b905061144b6040830185610f53565b61145860608301846111c5565b95945050505050565b6000604051905081810181811067ffffffffffffffff82111715611488576114876116b6565b5b8060405250919050565b600067ffffffffffffffff8211156114ad576114ac6116b6565b5b601f19601f8301169050602081019050919050565b6000819050602082019050919050565b600081519050919050565b600081519050919050565b6000602082019050919050565b600082825260208201905092915050565b600082825260208201905092915050565b60006115228261153b565b9050919050565b60006115348261153b565b9050919050565b600073ffffffffffffffffffffffffffffffffffffffff82169050919050565b6000819050919050565b600061157082611577565b9050919050565b600061158282611589565b9050919050565b60006115948261153b565b9050919050565b82818337600083830152505050565b60005b838110156115c85780820151818401526020810190506115ad565b838111156115d7576000848401525b50505050565b600060028204905060018216806115f557607f821691505b6020821081141561160957611608611687565b5b50919050565b600061161a8261155b565b91507fffffffffffffffffffffffffffffffffffffffffffffffffffffffffffffffff82141561164d5761164c611658565b5b600182019050919050565b7f4e487b7100000000000000000000000000000000000000000000000000000000600052601160045260246000fd5b7f4e487b7100000000000000000000000000000000000000000000000000000000600052602260045260246000fd5b7f4e487b7100000000000000000000000000000000000000000000000000000000600052604160045260246000fd5b6000601f19601f8301169050919050565b6116ff81611529565b811461170a57600080fd5b50565b6117168161155b565b811461172157600080fd5b5056fea2646970667358221220a7f40d797adc20d6e910455ce0a918291f7f0560cef810135872a894de55ff7d64736f6c63430008000033",
  "immutableReferences": {},
  "source": "// SPDX-License-Identifier: MIT\npragma solidity ^0.8.0;\n\ncontract RealEstate {\n    struct Property {\n        uint id;                  // Identifiant unique pour la proprit\n        string description;       // Description de la proprit\n        address payable owner;    // Propritaire actuel\n        uint price;               // Prix en wei\n        address[] previousOwners; // Historique des anciens propritaires\n    }\n\n    mapping(uint => Property) public properties; // Mapping pour les proprits\n    uint public propertyCount;                    // Compteur pour les proprits\n\n    event PropertyListed(uint id, string description, address owner, uint price);\n    event PropertySold(uint id, address newOwner, uint price);\n    event OwnershipTransferred(uint id, address from, address to);\n\n    // Garde de rentrance\n    bool internal locked;\n    modifier noReentrancy() {\n        require(!locked, \"Reentrancy protection\");\n        locked = true;\n        _;\n        locked = false;\n    }\n\n    // Fonction pour ajouter une nouvelle proprit\n    function addProperty(string memory _description, uint _price) public {\n        require(_price > 0, \"Price must be greater than zero\"); // Correction ici\n        propertyCount++;\n        address[] memory emptyOwners;\n\n        properties[propertyCount] = Property({\n            id: propertyCount,\n            description: _description,\n            owner: payable(msg.sender),\n            price: _price,\n            previousOwners: emptyOwners\n        });\n\n        emit PropertyListed(propertyCount, _description, msg.sender, _price);\n    }\n\n    // Fonction pour acheter une proprit\n    function buyProperty(uint _id) public payable noReentrancy {\n        require(propertyExists(_id), \"Property does not exist\");\n        Property storage property = properties[_id];\n\n        // Vrifier si l'acheteur envoie le montant correct\n        require(msg.value == property.price, \"Incorrect price\");\n\n        // Sauvegarder l'ancien propritaire dans l'historique\n        address payable previousOwner = property.owner;\n        property.previousOwners.push(previousOwner); // Ajouter le prcdent propritaire  l'historique\n        property.owner = payable(msg.sender);        // Dfinir le nouveau propritaire\n\n        // Transfrer les fonds  l'ancien propritaire\n        previousOwner.transfer(msg.value);\n\n        emit PropertySold(_id, msg.sender, property.price);\n        emit OwnershipTransferred(_id, previousOwner, msg.sender);\n    }\n\n    // Fonction pour transfrer manuellement la proprit\n    function transferOwnership(uint _id, address payable _newOwner) public {\n        require(propertyExists(_id), \"Property does not exist\");\n        Property storage property = properties[_id];\n\n        require(property.owner == msg.sender, \"Only the owner can transfer ownership\");\n        require(_newOwner != address(0), \"New owner cannot be the zero address\");\n\n        address previousOwner = property.owner;\n        property.previousOwners.push(previousOwner); // Ajouter le propritaire actuel  l'historique\n        property.owner = _newOwner; // Transfrer la proprit\n\n        emit OwnershipTransferred(_id, previousOwner, _newOwner);\n    }\n\n    // Fonction pour obtenir les dtails d'une proprit\n    function getPropertyDetails(uint _id) public view returns (string memory description, address owner, uint price, address[] memory previousOwners) {\n        require(propertyExists(_id), \"Property does not exist\");\n        Property storage property = properties[_id];\n\n        return (property.description, property.owner, property.price, property.previousOwners);\n    }\n\n    // Fonction pour vrifier si une proprit existe\n    function propertyExists(uint _id) internal view returns (bool) {\n        return (_id > 0 && _id <= propertyCount && properties[_id].owner != address(0));\n    }\n\n    // Fonction pour obtenir l'historique des anciens propritaires\n    function getPreviousOwners(uint _id) public view returns (address[] memory) {\n        require(propertyExists(_id), \"Property does not exist\");\n        return properties[_id].previousOwners;\n    }\n}\n\n",
  "sourcePath": "/home/vboxuser/real-estate-dapp/contracts/RealEstate.sol",
  "compiler": {
    "name": "solc",
    "version": "0.8.0+commit.c7dfd78e.Emscripten.clang"
  },
  "schemaVersion": "3.4.16",
  "updatedAt": "2024-10-07T08:53:30.123Z",
  "networkType": "ethereum",
  "devdoc": {
    "kind": "dev",
    "methods": {},
    "version": 1
  },
  "userdoc": {
    "kind": "user",
    "methods": {},
    "version": 1
  }
}